:020000040800F2
:1000000028C10020610200083D8A00089B6F00089B
:10001000398A00082D0F000851C9000800000000AF
:10002000000000000000000000000000A101000826
:10003000F319000800000000FD010008E5B9000800
:100040007B0200087B0200087B0200087B0200089C
:100050007B0200087B020008F51900087B020008FB
:100060007B020008FF190008091A00087B0200083B
:10007000DD0F00087B0200087B0200087B020008FD
:100080007B0200087B0200087B020008410F000889
:10009000310F00087B0200087B020008131A0008D9
:1000A0007B020008E9BA00087B0200087B02000816
:1000B00001BB000811BB00087B0200087B0200089E
:1000C0007B0200087B0200087B0200087B0200081C
:1000D0007B0200082DC900087B0200087B02000893
:1000E0007B0200087B0200087B0200087B020008FC
:1000F0007B0200087B0200087B0200087B020008EC
:100100007B0200087B0200087B0200087B020008DB
:100110007B0200087B02000825BB000835BB0008F5
:100120007B0200081910000829100008A91800080F
:100130007B0200087B0200087B020008610F0008B8
:10014000510F00087B0200087B0200087B020008B8
:10015000B9180008C9180008D918000841C90008D2
:100160007B0200087B0200087B0200087B0200087B
:100170007B0200087B0200087B02000800000000F0
:100180007B0200087B020008DFF810D000F000FCC2
:1001900000480047C5F50008AFF3008028C10020E3
:1001A0002C4B19680868B0E8F04F80F30988BFF35A
:1001B0006F8F4FF0000080F311887047000000003F
:1001C00008480068006880F308884FF0000080F35A
:1001D000148862B661B6BFF34F8FBFF36F8F00DF35
:1001E00000BF00BF08ED00E0DFF80C00016841F43B
:1001F00070010160704700BF88ED00E0EFF30980F7
:10020000BFF36F8F134B1A681EF0100F08BF20ED5D
:10021000108A20E9F04F106009B44FF0500080F3CD
:100220001188BFF34F8FBFF36F8F11F0EBFE4FF0CC
:10023000000080F3118809BC19680868B0E8F04F25
:100240001EF0100F08BFB0EC108A80F30988BFF3CE
:100250006F8F70476C000020EFF30580704700003F
:100260000648804706480047FEE7FEE7FEE7FEE750
:10027000FEE7FEE7FEE7FEE7FEE7FEE7CDBA000891
:10028000890100082DE9F05F0546002092469B4653
:1002900088460646814640241BE02846414647469C
:1002A000224600F03DFA53465A46C01A914110D3F7
:1002B00011461846224600F024FA2D1A67EB010871
:1002C0004F4622460120002100F01BFA17EB0009DF
:1002D0004E41201EA4F10104DFDC484631462A4687
:1002E0004346BDE8F09F40EA01039B0703D009E0C5
:1002F00008C9121F08C0042AFAD203E011F8013B12
:1003000000F8013B521EF9D27047D2B201E000F86A
:10031000012B491EFBD270470022F6E710B51346A9
:100320000A4604461946FFF7F0FF204610BD421C5E
:1003300010F8011B0029FBD1801A7047034611F801
:10034000012B00F8012B002AF9D1184670472DE93E
:10035000FE4F804681EA0300C00F0C46009021F05A
:10036000004123F00045B8EB0200A94105D2404608
:10037000214690461C460B46024623F0004010439F
:1003800047D0270DC7F30A00C3F30A510290401A61
:10039000019040286BDAC3F3130040F4801B0098EF
:1003A000924620B10023D2EB030A63EB0B0B0198BA
:1003B0005946C0F14002504600F0A3F906460D46EA
:1003C00050465946019A00F0BBF910EB0800614114
:1003D000002487EA115284EAE7731A4340D0009A56
:1003E00062B3019A012A4FEA075215DC001B61EB48
:1003F00002014FF0004202EA0752CDE90042001C20
:1004000041F5801132462B4600F0F2F903B0BDE809
:10041000F08F40462146F9E7001B61EB0201001C0A
:1004200041F5801300185B412018A2F5001747EB37
:10043000030140EAD570B6196D4111E06D084FEA2D
:10044000360645EAC0754FEA0752001B61EB020110
:10045000001C41F5801149084FEA30000019514154
:1004600032462B4603B0BDE8F04F00F0B2B9009819
:10047000012240000023D0EB020263EBE0730098FE
:1004800021464FEAE074B8EB000061EB0401E9E7B4
:1004900083F000435BE781F0004158E72DE9FE4F10
:1004A00081EA030404F0004421F0004100944FF07D
:1004B000000B23F0004350EA01045ED052EA03042B
:1004C0005BD0C3F30A54C1F30A552C44A4F2F334AD
:1004D0000194A0FB0254C1F3130141F48011C3F352
:1004E000130343F4801301FB024400FB034E840A10
:1004F000970A44EA815447EA8357A4FB07680295A8
:100500008D0A05FB07854FEA932C04FB0C54270545
:10051000029D4FEA065847EA1637B5EB08056EEB21
:10052000070C870E920E47EA811742EA8312A7FB57
:100530000201B6EB0B0164EB00042B0D43EA0C3314
:100540005E1844EB1C50DA465146E7FB0201C5F346
:1005500013044FEA0B3343EA14534FEA0432019C6D
:1005600043EA0603A4F10C040294009CCDE900B414
:1005700000F03EF903B0BDE8F08F00200146F9E736
:100580002DE9F04D81EA030404F0004B21F0004511
:1005900014464FF0000A23F0004150EA050220D033
:1005A00054EA01021DD0C5F30A570246C5F31303EE
:1005B000C1F31300C1F30A5640F4801543F48013CD
:1005C000A7EB0608101BD64608F2FD3873EB0500B2
:1005D00002D308F1010801E092185B41B8F1000F65
:1005E00003DA00200146BDE8F08D00204FF48011B1
:1005F000064684460EE0171B73EB050705D3121B56
:1006000063EB050306434CEA010C49084FEA30004E
:1006100092185B4150EA0107EDD152EA030012D073
:1006200082EA040083EA0501084305D0101BAB41B0
:1006300006D20122002306E000224FF0004302E030
:100640006FF0010253101AEB06004CEB085110EB4F
:100650000A0041EB0B01BDE8F04D00F0BAB80EB551
:1006600040F2334102910021CDE900110A460B46C8
:1006700000F0BEF803B000BD00F0004230F00040D2
:100680000AD0C10D01F56071C0F3160042EA0151B4
:10069000C20840071143704700200146704701F02F
:1006A000004330B421F0004150EA010206D00A0DA7
:1006B000A2F56072C1F31301002A02DC30BC0020F5
:1006C0007047440F44EAC104C100E01830BC00EB9D
:1006D000C25000F047B830B50B460146002020223A
:1006E000012409E021FA02F59D4205D303FA02F53F
:1006F000491B04FA02F52844151EA2F10102F1DC9F
:1007000030BD202A04DB203A00FA02F100207047B5
:100710009140C2F1200320FA03F31943904070473F
:10072000202A04DB203A21FA02F00021704721FA46
:1007300002F3D040C2F120029140084319467047AD
:10074000202A06DBCB17203A41FA02F043EAE07395
:1007500006E041FA02F3D040C2F120029140084382
:10076000194670470029A8BF7047401C490008BFC0
:1007700020F00100704710B4B0FA80FC00FA0CF0D1
:1007800050EA010404BF10BC704749B1CCF1200409
:1007900021FA04F411FA0CF118BF01212143084396
:1007A000A3EB0C01CB1D4FEA00614FEA102042BFC2
:1007B000002010BC704700EBC35010440029A4BFB8
:1007C00010BC7047401C490008BF20F0010010BC5D
:1007D000704710B5141E73F1000408DA401C41F193
:1007E000000192185B411A4301D120F0010010BDB5
:1007F0002DE9F04D92469B4611B1B1FA81F202E02B
:10080000B0FA80F220329046FFF77BFF04460F4695
:1008100040EA0A0041EA0B0153465A46084313D006
:10082000114653EA010019D0C8F140025046FFF7C3
:1008300077FF05460E46504659464246FFF761FF90
:10084000084305D0012004E020463946BDE8F08D7C
:100850000020054346EAE0762C4337430A986305B7
:10086000E40AA0EB08000022FD0A44EA47540A30DB
:1008700002D500200146E9E7010510196941DDE9CB
:10088000084500196941BDE8F04DA2E72DE9F04D9A
:1008900000231A461B1A8A4103DB00200146BDE8EB
:1008A000F08DC1F30A52C1F3130141F480154FF0EA
:1008B000000BD10702D100186D41521E00270446DB
:1008C00040F2FF11384601EB620A3E46804602467E
:1008D00000204FF48011FFF723FFC2197141BB18AC
:1008E00046EB0100B4EB030C75EB000C04D3E41AE7
:1008F00065EB000517460E46241908F101006D410D
:1009000080463428E3DDF91946EB0600091BA841AF
:1009100003D24FF0FF32134601E0002213461BEBD7
:10092000070046EB0A51BDE8F04DFFF752BFC1F397
:100930000A52C1F3130140F2FF3341F480119A428D
:1009400002DA00200146704740F233439A42A2F295
:10095000334202DC5242FFF7E3BEFFF7D2BE000093
:1009600030B5041E71F1000404DB4FF00044404236
:1009700064EB0101141E73F1000405DB1C464FF00B
:100980000043524263EB0403994208BF904230BDDA
:10099000064C074D06E0E06840F0010394E80700CC
:1009A00098471034AC42F6D3FFF7F2FB003E010843
:1009B000203E010870B58C1810F8015B15F0070394
:1009C00001D110F8013B2A1106D110F8012B03E0E8
:1009D00010F8016B01F8016B5B1EF9D12B0705D4F0
:1009E0000023521E0DD401F8013BFAE710F8013B39
:1009F000CB1A921C03E013F8015B01F8015B521E55
:100A0000F9D5A142D8D3002070BD0000B7EE000A8E
:100A100080ED000A9FED060A80ED010A9FED040AB1
:100A200080ED020A9FED020A80ED030A7047000084
:100A3000000000002DE9F0412DED028B0746B0EEDD
:100A4000408A0C4615461E46D6ED024AB0EE644A70
:100A5000D6ED014AF0EE643AD6ED004AB0EE643AC3
:100A6000D5ED024AF0EE642AD5ED014AB0EE642AD3
:100A7000D5ED004AF0EE641AD4ED024AB0EE641AE5
:100A8000D4ED014AF0EE640AD4ED004AB0EE640AF7
:100A9000384607F077FBBDEC028BBDE8F081000023
:100AA00010B501221021024802F032FD10BD0000F5
:100AB0000000024010B500221021024802F028FD7B
:100AC00010BD00000000024000B587B0142102A84C
:100AD000FFF722FC00BF002001901E48006840F094
:100AE00002001C4908600846006800F002000190FE
:100AF00000BF00BF00BF002001900846006840F022
:100B0000010008600846006800F00100019000BF85
:100B100000BF01221021104802F0FAFC0122114608
:100B20000E4802F0F5FC1020029001200390049082
:100B30000220059002A9084802F0CAFA012002909A
:100B4000039004900220059002A9044802F0C0FA24
:100B500007B000BD303802400000024000040240EF
:100B600010B501221146024802F0D2FC10BD00006F
:100B70000004024010B500220121024802F0C8FC26
:100B800010BD00000004024010B543781B021BB2E8
:100B90000478234300EE103AB8EEC01A1C4BD3ED94
:100BA000001A21EE211A81ED001AC3781B021BB234
:100BB0008478234300EE103AB8EEC01A144BD3EDFC
:100BC000001A21EE211A81ED011A43791B021BB292
:100BD0000479234300EE103AB8EEC01A0C4BD3ED63
:100BE000001A21EE211A81ED021A037A1B04C4793E
:100BF00043EA04238479234300EE903AB8EE601A66
:100C0000DFED041A21EE211A82ED001A10BD00005A
:100C10005804002000401C42704710B5044620468E
:100C200010F0BEFE10BD10B5044620460DF01CFAB3
:100C300010BD00004278120212B203781A4300EE8F
:100C4000102AF8EEC00A144A92ED001A60EE810AEA
:100C5000C1ED000AC278120212B283781A4300EE84
:100C6000102AF8EEC00A0C4A92ED001A60EE810AD2
:100C7000C1ED010A4279120212B203791A4300EE61
:100C8000102AF8EEC00A044A92ED001A60EE810ABA
:100C9000C1ED020A704700005C04002010B500247A
:100CA000FFF712FFFFF7B8FF0CF084FE10B144F01D
:100CB000800402E00CF0E4FD04430DF073F810B181
:100CC00044F0400402E00CF0F3FF0443204610BD62
:100CD0002DE9FC4105460E46174600200090019084
:100CE000FFF7E8FE922000F0D1F8062269461220B4
:100CF00000F0ACF8FFF7D4FE9DF80100000200B24E
:100D00009DF8001040EA010400EE104AB8EEC00A57
:100D10004C48D0ED000A20EE200A86ED000A9DF82E
:100D20000300000200B29DF8021040EA010400EE48
:100D3000104AB8EEC00A4348D0ED000A20EE200A5F
:100D400086ED010A9DF80500000200B29DF804102E
:100D500040EA010400EE104AB8EEC00A3948D0ED6E
:100D6000000A20EE200A86ED020AFFF703FF0822A0
:100D70006946002000F06AF8FFF7F2FE9DF80000D7
:100D80000F2838D19DF80300000200B29DF8021030
:100D900040EA010400EE104AB8EEC00A2A48D0ED3D
:100DA000000A20EE200A85ED000A9DF805000002E9
:100DB00000B29DF8041040EA010400EE104AB8EEBB
:100DC000C00A2148D0ED000A20EE200A85ED010A74
:100DD0009DF80700000200B29DF8061040EA0104E9
:100DE00000EE104AB8EEC00A1748D0ED000A20EE17
:100DF000200A85ED020AFFF75DFEA22000F046F80A
:100E000002226946222000F021F8FFF749FE9DF8F2
:100E10000000C0009DF8011040EA6114B4F5806F35
:100E200002DBA4F5006004B200EE104AF8EEC00A3E
:100E3000B4EE001AB3EE070A00EE810A87ED000A4D
:100E4000BDE8FC81580400205C04002070B5064613
:100E50000C46154646F0800000F018F806E05520D4
:100E600000F014F82070641C681EC5B2002DF6D185
:100E700070BD70B504460D4644F0800000F006F8E1
:100E8000552000F003F8287070BD000001B582B055
:100E90004FF47A70012301AA02A90090024803F0DE
:100EA000EDFF9DF804000EBD9405002010B502462C
:100EB0001378DB00547843EA6410B0F5806F02DBEE
:100EC000A0F5006318B200EE100AF8EEC00AB4EE06
:100ED000001AB3EE070A00EE810A81ED000A10BD88
:100EE00070B505460C462846FFF7D0FF2046FFF7B1
:100EF000CDFF70BD10B544F6206200230849086894
:100F00004968FFF7BFF900214A404B401A4306D118
:100F10000448006880F001000349C1F8AC0210BD2C
:100F200038000020AC8243420080434200BFFEE70D
:100F300010B5024801F0AEF810BD0000F00400202A
:100F400010B5024801F0A6F810BD0000F004002022
:100F500010B5024801F09EF810BD000018050020F1
:100F600010B5024801F096F810BD000018050020E9
:100F700000B58BB0282101A8FFF7CEF9002006901C
:100F800001900290079001200890002003900490A7
:100F9000012009900E200A900020059001A90D481B
:100FA00000F074FE0B4801F054FC0221094800F0E7
:100FB00039FD0E2006900020059001A9064800F09A
:100FC00065FE054801F045FC0221034800F02AFDBA
:100FD0000BB000BDF00400201805002010B50A4831
:100FE00001F0D6FC0DF0FAFA0446214607480DF050
:100FF000F9FA12220549064805F0FEFE11F0FCFE42
:101000000449086010BD0000A80A00207C080020E8
:1010100068090020C802002010B5024801F0B8FCA1
:1010200010BD0000080B002010B5FE48C06C006821
:10103000FD49884276D9FC4854380068F949C96CA2
:101040000968FA4A914201D1202169E0F549C96C49
:101050000968F54A483A914201D1202160E0F149FE
:10106000C96C0968F14A6032914201D1202157E0F0
:10107000EC49C96C0968EC4A1832914201D120212F
:101080004EE0E849C96C0968E84A1832914201D13A
:10109000C91445E0E349C96C0968E34A303A914212
:1010A00001D1C9143CE0DF49C96C0968DF4A7832D4
:1010B000914201D1C91433E0DA49C96C0968DA4AAE
:1010C0003032914201D1C9142AE0D649C96C09686D
:1010D000D64A3032914202D14FF4001120E0D1497A
:1010E000C96C0968D04A183A914202D14FF40011F4
:1010F00016E0CC49C96C0968CC4A9032914202D1C1
:101100004FF400110CE0C749C96C0968C64A48325F
:10111000914203D14FF4001102E003E04FF000616F
:10112000084070E1BF48C06C0068C049A8318842DF
:1011300076D9BD4858380068BA49C96C0968BB4AB5
:10114000914201D1202169E0B649C96C0968B64ACB
:10115000483A914201D1202160E0B249C96C096846
:10116000B24A6032914201D1202157E0AD49C96CA9
:101170000968AD4A1832914201D120214EE0A949B7
:10118000C96C0968A94A1832914201D1C91445E0D5
:10119000A449C96C0968A44A303A914201D1C914E2
:1011A0003CE0A049C96C0968A04A7832914201D15B
:1011B000C91433E09B49C96C09689B4A303291429B
:1011C00001D1C9142AE09749C96C0968974A30329D
:1011D000914202D14FF4001120E09249C96C096894
:1011E000914A183A914202D14FF4001116E08D490C
:1011F000C96C09688D4A9032914202D14FF40011B6
:101200000CE08849C96C0968874A4832914203D189
:101210004FF4001102E003E04FF000610840F2E0FB
:101220008048C06C006881494831884276D97F483F
:10123000103840687B49C96C09687C4A914201D1E9
:10124000202169E07749C96C0968774A483A914298
:1012500001D1202160E07349C96C0968734A60328A
:10126000914201D1202157E06E49C96C09686E4A4C
:101270001832914201D120214EE06A49C96C0968B7
:101280006A4A1832914201D1C91445E06549C96CD6
:101290000968654A303A914201D1C9143CE061497C
:1012A000C96C0968614A7832914201D1C91433E0AE
:1012B0005C49C96C09685C4A3032914201D1C91459
:1012C0002AE05849C96C0968584A3032914202D123
:1012D0004FF4001120E05349C96C0968524A183A8A
:1012E000914202D14FF4001116E04E49C96C0968D1
:1012F0004E4A9032914202D14FF400110CE049491C
:10130000C96C0968484A4832914203D14FF4001130
:1013100002E003E04FF00061084074E043481038F9
:1013200000684049C96C0968404A914201D12021B6
:1013300068E03C49C96C09683B4A483A914201D18E
:1013400020215FE03749C96C0968384A6032914210
:1013500001D1202156E03349C96C0968324A18325C
:10136000914201D120214DE02E49C96C09682F4AD4
:101370001832914201D1C91444E02A49C96C096864
:10138000294A303A914201D1C9143BE02549C96C40
:101390000968264A7832914201D1C91432E02149C4
:1013A000C96C0968204A3032914201D1C91429E040
:1013B0001C49C96C09681D4A3032914202D14FF470
:1013C00000111FE01749C96C0968174A183A914281
:1013D00002D14FF4001115E01249C96C0968134A93
:1013E0009032914202D14FF400110BE00D49C96CCB
:1013F00009680D4A4832914202D14FF4001101E0D0
:101400004FF00061084000286FD00648C06C0068AB
:10141000054988427BD90348C06C0068034988426B
:1014200008D105E094050020586402401060024095
:10143000202068E0FE48C06C0068FE49884201D167
:10144000202060E0FA48C06C0068FB49884201D166
:10145000202058E0F648C06C0068F64960318842A8
:1014600001D120204FE0F248C06C0068F2494839B1
:10147000884201D1C01446E0ED48C06C0068ED49D7
:101480001831884201D1C0143DE0E948C06C0068C1
:10149000E9491831884201D1C01434E0E448C06CF5
:1014A0000068E4497831884201D1C0142BE0E0485B
:1014B000C06C0068E0493039884202D14FF4001016
:1014C00021E0DB48C06C0068DA493031884202D143
:1014D0004FF4001017E0D648C06C0068D649303190
:1014E000884204D14FF400100DE0D4E10FE0D04861
:1014F000C06C0068CF499031884202D14FF400108F
:1015000001E04FF00060CB49091F08606AE1C8485C
:10151000C06C0068C8494831884274D9C448C06C5E
:101520000068C5496039884201D1202066E0C04882
:10153000C06C0068BF49884201D120205EE0BC48F1
:10154000C06C0068BC49884201D1202056E0B848F0
:10155000C06C0068B7496031884201D120204DE05D
:10156000B348C06C0068B4494839884201D1C014FE
:1015700044E0AF48C06C0068AE491831884201D1E0
:10158000C0143BE0AA48C06C0068AB4918318842DF
:1015900001D1C01432E0A648C06C0068A54978317A
:1015A000884201D1C01429E0A148C06C0068A2495A
:1015B0003039884202D14FF400101FE09C48C06CC3
:1015C00000689C493031884202D14FF4001015E088
:1015D0009748C06C006898493031884202D14FF476
:1015E00000100BE09248C06C00689249903188422C
:1015F00002D14FF4001001E04FF000608D4908392E
:101600000860EFE0FFE78A48C06C00688A49183933
:10161000884274D98648C06C00688749603988421E
:1016200001D1202066E08248C06C00688149884270
:1016300001D120205EE07E48C06C00687E4988426F
:1016400001D1202056E07A48C06C006879496031A9
:10165000884201D120204DE07548C06C0068764971
:101660004839884201D1C01444E07148C06C006818
:1016700070491831884201D1C0143BE06C48C06CFD
:1016800000686D491831884201D1C01432E06848C1
:10169000C06C006867497831884201D1C01429E0E4
:1016A0006348C06C006864493039884202D14FF405
:1016B00000101FE05E48C06C00685E49303188420F
:1016C00002D14FF4001015E05948C06C00685A4927
:1016D0003031884202D14FF400100BE05448C06C06
:1016E000006854499031884202D14FF4001001E063
:1016F0004FF0006050497039C86073E0FFE74C4814
:10170000C06C00684C496039884201D1202066E0F5
:101710004748C06C00684749884201D120205EE0FC
:101720004348C06C00684449884201D1202056E0FB
:101730003F48C06C00683F496031884201D1202099
:101740004DE03B48C06C00683B494839884201D1B4
:10175000C01444E03648C06C0068364918318842ED
:1017600001D1C0143BE03248C06C006832491831E6
:10177000884201D1C01432E02D48C06C00682D4968
:101780007831884201D1C01429E02948C06C006832
:1017900029493039884202D14FF400101FE0244813
:1017A000C06C006823493031884202D14FF40010E8
:1017B00015E01F48C06C00681F493031884202D1D3
:1017C0004FF400100BE01A48C06C006819499031C2
:1017D000884202D14FF4001001E04FF0006016493A
:1017E000703988601548007800F0020078B113481D
:1017F000007820F00200114908700846007840F097
:1018000004000870012211460D4801F081FE0D48C8
:10181000007800F00200E0B10A48007820F00200F1
:10182000084908700846007840F0040008700BE092
:1018300094050020106402407060024025020020E0
:10184000000402402602002001221021124801F06B
:101850005FFE1248007800F0020078B10F4800786F
:1018600020F002000D4908700846007840F004009E
:10187000087001221021084801F04AFE0DF096FC84
:101880000748007800F0040028B10648006840F0DE
:1018900001000449086010BD00000240270200203A
:1018A00025020020103C014010B5024801F070F8FC
:1018B00010BD00004C06002010B5024801F068F889
:1018C00010BD0000480A002010B5024801F060F881
:1018D00010BD0000680B002010B5024801F058F858
:1018E00010BD0000E80900200146087810381823D0
:1018F000B0FBF3F20848805CC865032A05D9086884
:101900006FF30900001D886503E008686FF30900A4
:101910008865886D70470000A833010801460020E3
:101920008A6A8B69CBB932B1012A0DD0022A03D061
:10193000032A10D10EE000BFCB6A03F08073B3F12D
:10194000807F00D1012007E0CB6AB3F1C07F00D1D6
:10195000012001E000E000BF34E08B69B3F5005FD7
:101960001AD132B1012A07D0022A03D0032A11D199
:101970000AE000BF01200EE0CB6A03F08073B3F1F0
:10198000807F00D1012006E0CB6AB3F1C07F00D197
:10199000012000E000BF15E032B1012A05D0022A83
:1019A00004D0032A0CD103E000BF00BF012008E0EF
:1019B000CB6A03F08073B3F1807F00D1012000E097
:1019C00000BF00BF704730B50468246824F4802449
:1019D00005682C60046863608468402C04D1046846
:1019E000A2600468E16003E00468A1600468E2604A
:1019F00030BD704710B5012001F05CFB10BD10B583
:101A0000082001F057FB10BD10B5102001F052FB6B
:101A100010BD10B5202001F04DFB10BD72B600BF07
:101A2000FEE7000070B504460D4694F820600D48AE
:101A3000854200D804E04FF4D0610BA00BF01EFFEC
:101A4000012E01D0022E06D120684069284321686A
:101A50004861002070BD606A40F48020606201200F
:101A6000F8E700007F8F03002E2E2F447269766501
:101A700072732F53544D3332463478785F48414C5B
:101A80005F4472697665722F5372632F73746D337E
:101A900032663478785F68616C5F63616E2E6300D4
:101AA0002DE9F04705460C461746994695F820A0C3
:101AB0002868D0F80880A06810B1A068042800D178
:101AC00004E040F2E94163A00BF0D8FEE06810B1F9
:101AD000E068022800D104E040F2EA415DA00BF08A
:101AE000CDFE2069082800D804E040F2EB4159A05F
:101AF0000BF0C4FEA06850B92068B0F5006F00D2AA
:101B00000FE040F2EE4153A00BF0B8FE09E0606830
:101B1000B0F1005F00D204E040F2F2414DA00BF0C2
:101B2000ADFE207D10B1207D012800D104E040F2FF
:101B3000F44148A00BF0A2FEBAF1010F02D0BAF1B5
:101B4000020F79D108F0806030B908F0006018B950
:101B500008F08050002871D0C8F30166022E06D923
:101B6000686A40F4000068620120BDE8F087012047
:101B7000B040C9F80000A06850B92188E06840EA88
:101B80004151286800F5C07000EB061001600BE0C1
:101B9000D4E9011040EAC100E1680843296801F571
:101BA000C07101EB061108602169286800F5C0705A
:101BB00000EB06104160207D01280DD1286800F55A
:101BC000C07000EB0610406840F48071286800F592
:101BD000C07000EB06104160F8790006B97940EA60
:101BE0000140797940EA012039790843296801F5F3
:101BF000C07101EB0611C860F8780006B97840EAB8
:101C00000140797840EA012039780843296801F5D4
:101C1000C07101EB06118860286800F5C07000EB08
:101C20000610006840F00101286800F5C07000EB64
:101C300006100160002098E706E0FFE7686A40F4BC
:101C400000106862012090E7686A40F480206862B2
:101C500001208AE72E2E2F447269766572732F5306
:101C6000544D3332463478785F48414C5F44726952
:101C70007665722F5372632F73746D3332663478C6
:101C8000785F68616C5F63616E2E63002DE9F041DF
:101C900007460C463D6897F82080B8F1010F02D046
:101CA000B8F1020F7ED12068B0F5803F00D204E089
:101CB0004FF4547172A00BF0E1FD6068B0F5803F05
:101CC00000D204E040F251316DA00BF0D7FDA068C6
:101CD000B0F5803F00D204E040F2523168A00BF032
:101CE000CDFDE068B0F5803F00D204E040F2533112
:101CF00063A00BF0C3FDA06910B1A069012800D159
:101D000004E04FF455715EA00BF0B8FDE06910B12E
:101D1000E069012800D104E040F2553158A00BF0F1
:101D2000ADFD206910B12069012800D104E040F226
:101D3000563153A00BF0A2FD206A10B1206A012891
:101D400000D104E040F257314DA00BF097FD5A4D01
:101D500060691B2800D804E040F2723148A00BF003
:101D60008DFD606A1B2800D804E040F2733144A066
:101D70000BF084FD05F50075286840F0010028602F
:101D8000286820F47C5028602868616A40EA0120B5
:101D90002860207D00F01F01012000FA01F6E869AB
:101DA000B04300E066E0E861A5F50075E069C8B9F8
:101DB000D5F80C02B043C5F80C02A08880B2A18906
:101DC00040EA014105F51070626940F83210208840
:101DD00080B2218940EA014105F51070626900EB8B
:101DE000C2004160E069012819D1D5F80C023043E6
:101DF000C5F80C02A08880B2218840EA014105F5AF
:101E00001070626940F83210A08980B2218940EADE
:101E1000014105F51070626900EBC2004160A069E4
:101E200028B9D5F80402B043C5F8040204E0D5F897
:101E300004023043C5F80402206928B9D5F8140219
:101E4000B043C5F8140204E0D5F814023043C5F8D5
:101E50001402206A012804D1D5F81C023043C5F8C9
:101E60001C02D5F8000220F00100C5F80002002095
:101E7000BDE8F081786A40F4802078620120F7E7BD
:101E80002E2E2F447269766572732F53544D333260
:101E9000463478785F48414C5F4472697665722FAA
:101EA0005372632F73746D3332663478785F686170
:101EB0006C5F63616E2E6300006400407047000039
:101EC0002DE9F04104460D4616461F4694F8208041
:101ED0000DB1012D00D104E04FF4BE615FA00BF005
:101EE000CDFCB8F1010F02D0B8F1020F7ED15DB97F
:101EF0002068C06800F0030088B9606A40F40010F0
:101F000060620120BDE8F0812068006900F00300F4
:101F100028B9606A40F4001060620120F2E720688E
:101F200000F5D87000EB0510006800F00400B06008
:101F3000B06840B9206800F5D87000EB0510006863
:101F4000400D306007E0206800F5D87000EB051008
:101F50000068C0087060206800F5D87000EB0510BC
:101F6000006800F00200F060206800F5D87000EB17
:101F70000510406800F00F003061206800F5D8704F
:101F800000EB0510406800F47F40000AB061206853
:101F900000F5D87000EB05104068000C70612068F7
:101FA00000F5D87000EB051080683870206800F5E7
:101FB000D87000EB0510806800F47F40000A78704C
:101FC000206800F5D87000EB0510806800F47F00F1
:101FD000000CB870206800F5D87000EB0510806820
:101FE000000EF870206800F5D87000E02FE000EBDC
:101FF0000510C0683871206800F5D87000EB051036
:10200000C06800F47F40000A7871206800F5D8703D
:1020100000EB0510C06800F47F00000CB871206868
:1020200000F5D87000EB0510C068000EF87135B9E6
:102030002068C06840F020002168C86005E0206882
:10204000006940F020002168086100205AE7606ABA
:1020500040F480206062012054E700002E2E2F44BF
:102060007269766572732F53544D333246347878E3
:102070005F48414C5F4472697665722F5372632FDB
:1020800073746D3332663478785F68616C5F636156
:102090006E2E63002DE9F05F044600252068466936
:1020A0002068D0F80490206887682068D0F80CA0D9
:1020B0002068D0F810B02068D0F8188006F0010031
:1020C000002855D007F00100C0B1012021688860C8
:1020D00007F0020018B1204600F0EBFB0EE007F01D
:1020E000040010B145F4006508E007F0080010B1E5
:1020F00045F4805502E0204600F0DAFB07F48070DA
:10210000C8B14FF480702168886007F4007018B17E
:10211000204600F0D0FB0EE007F4806010B145F4DB
:10212000005508E007F4006010B145F4804502E076
:10213000204600F0BFFB07F48030C8B14FF4803078
:102140002168886007F4003018B1204600F0B5FB24
:102150000EE007F4802010B145F4004508E007F4D4
:10216000002010B145F4803502E0204600F0A4FBC9
:1021700006F0080038B10AF0100020B145F40075EF
:1021800010202168C86006F0040040B10AF0080081
:1021900028B108202168C860204600F029FB06F01D
:1021A000020038B12068C06800F0030010B120467A
:1021B00000F020FB06F0400038B10BF0100020B119
:1021C00045F4806510202168086106F0200040B1C8
:1021D0000BF0080028B1082021680861204600F0B3
:1021E00035FB06F0100038B12068006900F00300EC
:1021F00010B1204600F02BFB06F4003040B109F08E
:10220000100028B1102021684860204600F020FB13
:1022100006F4803040B109F0080028B10820216898
:102220004860204600F04AFB06F4004088B309F0FD
:10223000040078B306F4807020B108F0010008B102
:1022400045F0010506F4007020B108F0020008B165
:1022500045F0020506F4806020B108F0040008B1E2
:1022600045F0040506F40060A0B108F0700088B1E4
:1022700008F07000402817D006DC10280BD020286A
:102280000CD0302819D10CE0502810D0602814D17F
:1022900010E01DE019E045F008050FE045F01005DD
:1022A0000CE045F0200509E045F0400506E045F06A
:1022B000800503E045F4807500E000BF00BF2068A2
:1022C000806920F0700021688861042021684860DE
:1022D0002DB1606A284360622046FFF7EFFDBDE83C
:1022E000F09F000070B504460CB9012070BDD049C4
:1022F0002068884203D0CF492068884200D104E09A
:1023000040F21D11CCA00BF0B9FA207E10B1207E56
:10231000012800D104E04FF48F71C7A00BF0AEFA92
:10232000607E10B1607E012800D104E040F21F11F0
:10233000C1A00BF0A3FAA07E10B1A07E012800D1AD
:1023400004E04FF49071BCA00BF098FAE07E10B15D
:10235000E07E012800D104E040F22111B6A00BF08C
:102360008DFA207F10B1207F012800D104E04FF4C6
:102370009171B1A00BF082FA607F10B1607F0128EB
:1023800000D104E040F22311ABA00BF077FAA06873
:1023900058B1A068B0F1804F07D0A068B0F1004FED
:1023A00003D0A068B0F1404F00D104E04FF4927127
:1023B000A1A00BF063FAE06858B1E068B0F1807F4B
:1023C00007D0E068B0F1007F03D0E068B0F1407F53
:1023D00000D104E040F2251197A00BF04FFA2069DC
:1023E000D8B32069B0F5803F37D02069B0F5003F01
:1023F00033D02069B0F5403F2FD02069B0F5802F51
:102400002BD02069B0F5A02F27D02069B0F5C02FC0
:1024100023D02069B0F5E02F1FD02069B0F5002F40
:102420001BD02069B0F5102F17D02069B0F5202FF0
:1024300013D02069B0F5302F0FD02069B0F5402FB0
:102440000BD02069B0F5502F07D02069B0F5602F70
:1024500003D02069B0F5702F00D104E04FF49371E0
:1024600075A00BF00BFA6069D8B16069B0F5801FF8
:1024700017D06069B0F5001F13D06069B0F5401F38
:102480000FD06069B0F5800F0BD06069B0F5A00F78
:1024900007D06069B0F5C00F03D06069B0F5E00FF8
:1024A00000D104E040F2271163A00BF0E7F9606867
:1024B00020B16068B0F5806F00D804E04FF49471EB
:1024C0005DA00BF0DBF994F8200010B9204600F075
:1024D000CFF82068006820F002002168086001F051
:1024E00053F805460DE001F04FF8401B0A2808D9C3
:1024F000606A40F400306062052084F8200001200A
:10250000F4E62068406800F002000028EBD1206863
:10251000006840F001002168086001F035F80546C8
:102520000DE001F031F8401B0A2808D9606A40F438
:1025300000306062052084F820000120D6E6206883
:10254000406800F001000028EBD0207E012806D171
:102550002068006840F080002168086005E020687D
:10256000006820F0800021680860607E012806D1A4
:102570002068006840F040002168086005E020689D
:10258000006820F0400021680860A07E012806D184
:102590002068006840F020002168086005E020689D
:1025A000006820F0200021680860E07E012806D144
:1025B0002068006820F010002168086005E02068AD
:1025C000006840F0100021680860207F012806D1D3
:1025D0002068006840F008002168086005E0206875
:1025E000006820F0080021680860607F012806D19B
:1025F0002068006840F004002168086005E0206859
:10260000006820F0040021680860D4E90201084352
:1026100021690843616908436168491E08432168CC
:10262000C86100206062012084F8200000205DE67F
:1026300000640040006800402E2E2F4472697665C9
:1026400072732F53544D3332463478785F48414C7F
:102650005F4472697665722F5372632F73746D33A2
:1026600032663478785F68616C5F63616E2E6300F8
:1026700010B586B00446142101A8FDF74DFE564959
:102680002068884249D155480068401C5349086079
:102690000846006801280FD100BF00200090504874
:1026A000006840F000704E4908600846006800F07D
:1026B0000070009000BF00BF00BF0020009048489D
:1026C0001038006840F00800454910390860084695
:1026D000006800F00800009000BF00BF03200190D8
:1026E000022002900020039003200490092005900E
:1026F00001A93C4800F0ECFC00220521132001F068
:102700006BFC132001F032FC00220521142001F0A3
:1027100063FC142001F02AFC5CE033492068884205
:1027200058D100BF002000902D48006840F0806024
:102730002B4908600846006800F08060009000BFE8
:1027400000BF26480068401C24490860084600680D
:1027500001280FD100BF002000902148006840F000
:1027600000701F4908600846006800F00070009083
:1027700000BF00BF00BF002000901948103800685B
:1027800040F002001649103908600846006800F061
:102790000200009000BF00BF602001900220029064
:1027A00000200390032004900920059001A90F4800
:1027B00000F08EFC002205213F2001F00DFC3F209F
:1027C00001F0D4FB00220521402001F005FC40204F
:1027D00001F0CCFB06B010BD0064004030000020CA
:1027E00040380240000C02400068004000040240F3
:1027F0007047000010B504460E492068884209D190
:102800000D4B0E4A00212046FFF75AFB0A490B48A0
:102810000BF046FB0A492068884209D1094B0A4A55
:1028200000212046FFF74CFB064907480BF086FBCA
:1028300010BD00000064004010000020880400204B
:102840000068004020000020BC0400207047704752
:10285000704770B5044694F82000012822D1022068
:1028600084F820002068006820F0010021680860DA
:1028700000F08AFE05460DE000F086FE401B0A28A7
:1028800008D9606A40F400306062052084F82000B6
:10289000012070BD2068406800F001000028EBD1E5
:1028A0006062F6E7606A40F4002060620120F0E7B1
:1028B000704770477047704770477047704770B5F2
:1028C0000446A56D00F060FE064694F83500022827
:1028D00008D08020606500BF002084F8340000BF6D
:1028E000012070BD2068006820F016002168086093
:1028F0002068406920F0800021684861206C08B998
:10290000A06C28B12068006820F0080021680860E9
:102910002068006820F00100216808600FE000F0E6
:1029200033FE801B05280AD92020606500BF0020E7
:1029300084F8340000BF032084F83500D1E7206814
:10294000006800F001000028E9D194F85C103F20F5
:102950008840A86000BF002084F8340000BF012038
:1029600084F835000020BCE7014691F835000228C4
:1029700003D08020486501207047052081F835008C
:102980000868006820F001000A6810600020F3E782
:10299000F8B50446002000908C4800684FF41651AA
:1029A000B0FBF1F7A56D2E6894F85C100820884004
:1029B000304098B12068006800F0040070B12068D1
:1029C000006820F004002168086094F85C1008207A
:1029D0008840A860606D40F00100606594F85C106C
:1029E00001208840304068B12068406900F08000D4
:1029F00040B194F85C1001208840A860606D40F000
:102A00000200606594F85C1004208840304068B192
:102A10002068006800F0020040B194F85C100420C7
:102A20008840A860606D40F00400606594F85C1018
:102A300010208840304078B32068006800F008001B
:102A400050B394F85C1010208840A860206800689B
:102A500000F4802080B12068006800F4002028B9CC
:102A6000206CC8B12046216C884715E0A06C98B155
:102A70002046A16C88470FE02068006800F4807051
:102A800028B92068006820F0080021680860206CE0
:102A900010B12046216C884794F85C1020208840B3
:102AA0003040002865D02068006800F01000002841
:102AB0005FD094F85C1020208840A86094F835001E
:102AC000052828D12068006820F0160021680860D9
:102AD0002068406920F0800021684861206C08B9B6
:102AE000A06C28B12068006820F008002168086008
:102AF00094F85C103F208840A86000BF002084F854
:102B0000340000BF012084F83500206D10B120464C
:102B1000216D8847F8BD2068006800F4802080B1EE
:102B20002068006800F4002028B9606C10B12046CD
:102B3000616C88471DE0E06BD8B12046E16B8847A7
:102B400017E02068006800F4807068B920680068A9
:102B500020F010002168086000BF002084F83400D5
:102B600000BF012084F83500E06B10B12046E16B16
:102B70008847606D38B3606D00F00100F0B105204A
:102B800084F835002068006820F0010021680860A2
:102B900000BF0098401C0090B84200D905E02068B2
:102BA000006800F001000028F3D100BF00BF002042
:102BB00084F8340000BF012084F83500E06C10B1C7
:102BC0002046E16C884700BFA4E7000068000020B1
:102BD0002DE9F0410446002500F0D6FC074614B963
:102BE0000120BDE8F081C0492068884249D0BE4933
:102BF00018312068884244D0BB493031206888426F
:102C00003FD0B9494831206888423AD0B64960314E
:102C10002068884235D0B44978312068884230D065
:102C2000B1499031206888422BD0AF49A831206843
:102C3000884226D0AD492068884222D0AB4918315D
:102C4000206888421DD0A94930312068884218D0B8
:102C5000A64948312068884213D0A44960312068D1
:102C600088420ED0A14978312068884209D09F4916
:102C700090312068884204D09C49A831206888425D
:102C800000D103E0B8219AA00AF0F8FD6068D8B13D
:102C90006068B0F1007F17D06068B0F1806F13D02A
:102CA0006068B0F1C06F0FD06068B0F1006F0BD0FA
:102CB0006068B0F1206F07D06068B0F1406F03D05A
:102CC0006068B0F1606F00D103E0B92188A00AF01C
:102CD000D5FDA06828B1A068402802D0A06880284F
:102CE00000D103E0BA2182A00AF0C8FDE068B0F587
:102CF000007F01D0E06800B903E0BB217CA00AF0AE
:102D0000BDFD2069B0F5806F01D0206900B903E0F6
:102D1000BC2177A00AF0B2FD606938B16069B0F5F6
:102D2000006F03D06069B0F5805F00D103E0BD2182
:102D30006FA00AF0A3FDA06938B1A069B0F5005FEB
:102D400003D0A069B0F5804F00D103E0BE2168A098
:102D50000AF094FDE06930B1E069B0F5807F02D0FF
:102D6000E069202800D103E0BF2161A00AF086FDC0
:102D7000206A58B1206AB0F5803F07D0206AB0F5CC
:102D8000003F03D0206AB0F5403F00D103E0C021EE
:102D900057A00AF073FD606A10B1606A042800D180
:102DA00003E0C12152A00AF069FD606A002835D015
:102DB000A06A40B1A06A012805D0A06A022802D00A
:102DC000A06A032800D103E0C62149A00AF056FDFD
:102DD000E06A58B1E06AB0F5000F07D0E06AB0F1E0
:102DE000807F03D0E06AB0F1C07F00D103E0C7214B
:102DF0003FA00AF043FD206B58B1206BB0F5001FD7
:102E000007D0206BB0F5800F03D0206BB0F5C00F5A
:102E100000D103E0C82136A00AF030FD00BF002039
:102E200084F8340000BF022084F835002068006870
:102E300020F00100216808600AE000F0A5FBC01B3B
:102E4000052805D920206065032084F83500C8E6F0
:102E50002068006800F001000028EED120680568B5
:102E600031480540D4E901010843E168084321697C
:102E7000084361690843A1690843E1690843216A7D
:102E800008430543606A042803D1D4E90B010843D1
:102E90000543206805602068456925F00705606ADC
:102EA0000543606A04280DD1A06A0543E06A48B171
:102EB0002046FEF733FD28B140206065012084F8EC
:102EC00035008EE6206845612046FEF70DFD06467A
:102ED00094F85C103F208840B060002060650120BD
:102EE00084F8350000207CE6106002401064024047
:102EF0002E2E2F447269766572732F53544D3332E0
:102F0000463478785F48414C5F4472697665722F29
:102F10005372632F73746D3332663478785F6861EF
:102F20006C5F646D612E63003F8010F02DE9F04707
:102F300004460E4617461D464FF00008D4F8589038
:102F40001DB1B5F5803F00D204E04FF4E67121A039
:102F50000AF094FC00BF94F83400012802D102204A
:102F6000BDE8F087012084F8340000BF94F83500F4
:102F7000012825D1022084F83500002060652B4609
:102F80003A4631462046FEF71EFD94F85C103F207D
:102F90008840C9F808002068006840F016002168E1
:102FA0000860206C28B12068006840F008002168A3
:102FB00008602068006840F001002168086006E0B1
:102FC00000BF002084F8340000BF4FF002084046E4
:102FD000C6E700002E2E2F447269766572732F5358
:102FE000544D3332463478785F48414C5F447269BF
:102FF0007665722F5372632F73746D333266347833
:10300000785F68616C5F646D612E630010B5044683
:10301000102C11D11F48007840F001001D490870A4
:103020001D48007840F001001B4908701B480078DB
:1030300070B30CF0BBF82BE0202C0BD118480078B3
:1030400040F00100164908701448007800B30CF0F5
:10305000ADF81DE0082C06D11248007840F00100C0
:103060001049087014E0012C12D10FF0B5FE0128B0
:103070000ED00D490D4800680EF044FE0A48006865
:1030800030B120070A490860BFF34F8FBFF36F8F3D
:1030900010BD000026020020270200202902002087
:1030A0002502002028020020C40200200002002087
:1030B00004ED00E010B5044604480068204020B14B
:1030C000024804602046FFF7A1FF10BD143C0140F8
:1030D0002DE9F84306460C464FF00009C846002586
:1030E000EA48864217D0EA48864214D0E948864228
:1030F00011D0E94886420ED0E84886420BD0E84815
:10310000864208D0E748864205D0E748864202D08A
:10311000E648864200D103E0B321E5A00AF0AEFB09
:10312000208880B220B120686FF30F0000B903E05F
:10313000B421DFA00AF0A2FB606830B36068012808
:1031400023D06068112820D0606802281DD06068F4
:1031500012281AD0E5496068884216D0E4496068B0
:10316000884212D0E349606888420ED0E249606824
:1031700088420AD0E1496068884206D0E049606828
:10318000884202D06068032800D103E0B521C8A0BE
:103190000AF074FBA06828B1A068012802D0A068DA
:1031A000022800D103E0B621C1A00AF067FB002786
:1031B00066E1012000FA07F9206800EA0908C8451D
:1031C0007ED16068012808D06068022805D0606858
:1031D000112802D06068122823D1E06840B1E0686D
:1031E000012805D0E068022802D0E068032800D159
:1031F00003E0C821AEA00AF041FBB56879000320C6
:10320000884085437900E06888400543B56075686B
:103210000120B84085432079C0F30010B840054331
:103220007560F56879000320884085437900A068BF
:1032300088400543F5606068022802D06068122863
:103240007ED12069E8B32069092864D02069C0B321
:103250002069B0B32069A0B3206990B32069012828
:1032600059D02069012856D02069022853D02069FE
:10327000022850D0206902284DD0206903284AD066
:103280002069042847D02069042844D020690428F4
:1032900041D0206905283ED0206905283BD020690F
:1032A000092838D02069062835D02069092832D06D
:1032B000206907282FD0206907282CD0206901E039
:1032C000D4E028E0072826D02069082823D02069E8
:1032D000082820D0206908281DD0206909281AD084
:1032E0002069092817D020690A2814D020690A28E3
:1032F00011D020690B280ED020690C280BD0206932
:103300000C2808D020690D2805D020690C2802D08F
:1033100020690F2800D103E0E02165A00AF0AEFA91
:10332000F90806F1200050F821507807C10E0F204F
:10333000884085437907C90E20698840054300E02D
:1033400004E0F90806F1200040F8215035687900C2
:10335000032088408543207900F0030079008840ED
:1033600005433560606800F08050B0F1805F7DD12A
:1033700000BF002000906348006840F4804061492D
:1033800008600846006800F48040009000BF00BF5D
:103390005D48B90850F82150B807010F0F20884048
:1033A00085433A48864201D1002023E038488642CE
:1033B00001D101201EE03748864201D1022019E0E8
:1033C0003548864201D1032014E03448864201D1B9
:1033D00004200FE03248864201D105200AE031483E
:1033E000864201D1062005E02F48864201D1072000
:1033F00000E00820B907090F884005434248B90892
:1034000040F821504148056825EA0805606800F445
:103410008030B0F5803F01D145EA08053B480560A2
:10342000001D056825EA0805606800F40030B0F565
:10343000003F01D145EA08053448001D0560001D24
:10344000056825EA0805606800F48010B0F5801F63
:1034500001D145EA08052D4808300560001D0568C2
:1034600025EA0805606800F4001000E007E0B0F508
:10347000001F01D145EA080524480C3005607F1C77
:10348000102FFFF496AEBDE8F88300000000024064
:103490000004024000080240000C024000100240FC
:1034A0000014024000180240001C024000200240AC
:1034B0002E2E2F447269766572732F53544D33321A
:1034C000463478785F48414C5F4472697665722F64
:1034D0005372632F73746D3332663478785F68612A
:1034E0006C5F6770696F2E630000000000001110B0
:1034F0000000211000003110000012100000221006
:10350000000032104438024008380140003C0140BD
:1035100070B506460C461546A0B218B1200C000442
:1035200000B904E040F29F1108A00AF0A7F90DB11C
:10353000012D00D104E04FF4D07104A00AF09EF9EF
:103540000DB1B46101E02004B06170BD2E2E2F4496
:103550007269766572732F53544D333246347878DE
:103560005F48414C5F4472697665722F5372632FD6
:1035700073746D3332663478785F68616C5F67703E
:10358000696F2E630000000001480068704700006A
:103590005800002070B504460CB9012070BDA34945
:1035A0002068884207D0A2492068884203D0A149F8
:1035B0002068884200D104E040F2BF119EA00AF0CA
:1035C0005DF9606820B1AA496068884200D804E0CB
:1035D0004FF4E07198A00AF051F9A06818B1A06802
:1035E000B0F5804F00D104E040F2C11192A00AF082
:1035F00045F9E0686FF3090000B904E04FF4E171A8
:103600008DA00AF03BF92069B0F5804F03D0206906
:10361000B0F5404F00D104E040F2C31186A00AF09B
:103620002DF9606910B16069012800D104E04FF400
:10363000E27181A00AF022F9A06920F0FE0000B931
:1036400004E040F2C5117CA00AF018F9E06910B15D
:10365000E069402800D104E04FF4E37176A00AF05D
:103660000DF9206A10B1206A802800D104E040F2F0
:10367000C71171A00AF002F994F83D0028B90020A2
:1036800084F83C00204600F075FB242084F83D00BF
:103690002068006820F00100216808602068006848
:1036A00040F40040216808602068006820F4004071
:1036B0002168086000F0C6FE05466E4960688842D1
:1036C00006D86D48854201D2012007E0002005E0C0
:1036D0006A48854201D2012000E00020012800D183
:1036E0005CE76748B5FBF0F62068406820F03F00D3
:1036F0003043216848605F496068884201D8701C87
:1037000007E04FF4967070434FF47A71B0FBF1F01C
:10371000401C2168096A21F03F01084321680862C2
:1037200054496068884214D8681E61684900B0FB3B
:10373000F1F0401CC0F30B00042801D204203DE04E
:10374000681E61684900B0FBF1F0401CC0F30B003B
:1037500034E0A06838B9681E616801EB4101B0FB34
:10376000F1F0401C0AE0681E616801EBC10202EB47
:103770000111B0FBF1F0401C40F48040C0F30B009D
:1037800008B901201AE0A06848B9681E616801EB19
:103790004101B0FBF1F0401CC0F30B000CE0681ECF
:1037A000616801EBC10202EB0111B0FBF1F0401CBA
:1037B000C0F30B0040F4804040F400402168C96928
:1037C0004CF6FF72914308432168C861D4E90701B0
:1037D00008432168096821F0C00108432168086096
:1037E000D4E9031008432168896848F2FF32914305
:1037F000084321688860D4E9050108432168C96845
:1038000021F0FF0108432168C8602068006840F08B
:1038100001002168086000202064202084F83D0019
:103820000020206384F83E0000BFB7E6005400404B
:1038300000580040005C00402E2E5C4472697665A2
:1038400072735C53544D3332463478785F48414C40
:103850005F4472697665725C5372635C73746D3336
:1038600032663478785F68616C5F6932632E63001A
:10387000801A0600A086010080841E0000093D0019
:1038800040420F002DE9FC5F0446884691461E46E3
:10389000DDE90CAB0E9FFFF777FE0546012E01D048
:1038A000102E00D104E04FF41F61B5A009F0E6FF2F
:1038B00094F83D00202870D119230122BE492046EA
:1038C000009503F0D9FC10B10220BDE8FC9F00BFB9
:1038D00094F83C00012801D10220F6E7012084F889
:1038E0003C0000BF2068006800F0010028B9206893
:1038F000006840F00100216808602068006820F43A
:10390000006021680860222084F83D00402084F88F
:103910003E0000202064C4F824A0A4F82AB0608DE2
:103920002085A648E06233464A4641462046CDE916
:10393000007503F053FB08B10120C6E7208D88B95C
:1039400000BF0020019020684069019020688069D4
:10395000019000BF00BF2068006840F4007021683B
:10396000086040E0208D012818D12068006820F40C
:1039700080602168086000BF0020019020684069D5
:10398000019020688069019000BF00BF2068006836
:1039900040F400702168086025E0EFE0208D0228E7
:1039A00016D12068006820F48060216808602068D3
:1039B000006840F400602168086000BF00200190AA
:1039C00020684069019020688069019000BF0AE08A
:1039D00000BF002001902068406901902068806944
:1039E000019000BF00BFBAE0208D03287ED8208D53
:1039F000012815D12A463946204603F0E2FC08B1D9
:103A0000012062E720680069616A0870606A401CF2
:103A10006062208D401E2085608D401E60859EE086
:103A2000208D02282AD13B46002265492046009578
:103A300003F022FC08B1012047E72068006840F449
:103A400000702168086020680069616A0870606A17
:103A5000401C6062208D401E2085608D401E608568
:103A600020680069616A0870606A401C6062208D8D
:103A7000401E2085608D401E608570E03B46002220
:103A80004F492046009503F0F7FB08B101201CE7E1
:103A90002068006820F48060216808602068006960
:103AA000616A0870606A401C6062208D401E20853B
:103AB000608D401E60853B460022414920460095AE
:103AC00003F0DAFB08B10120FFE62068006840F44B
:103AD00000702168086020680069616A0870606A87
:103AE000401C6062208D401E208500E010E0608D4B
:103AF000401E608520680069616A0870606A401C29
:103B00006062208D401E2085608D401E608526E00D
:103B10002A463946204603F054FC08B10120D4E679
:103B200020680069616A0870606A401C6062208DCC
:103B3000401E2085608D401E608520684069C0F36E
:103B4000800060B120680069616A0870606A401C8A
:103B50006062208D401E2085608D401E6085208D16
:103B600000287FF441AF202084F83D00002084F835
:103B70003E0000BF84F83C0000BFA6E60220A4E699
:103B80002E2E5C447269766572735C53544D3332E9
:103B9000463478785F48414C5F4472697665725C60
:103BA0005372635C73746D3332663478785F686126
:103BB0006C5F6932632E6300020010000000FFFF9B
:103BC000040001002DE9FC5F0446884691461D462D
:103BD000DDE90CAB0E9FFFF7D7FC0646012D01D0A7
:103BE000102D00D104E040F6751152A009F046FEF8
:103BF00094F83D0020287DD1192301225B492046FD
:103C0000009603F039FB10B10220BDE8FC9F00BF15
:103C100094F83C00012801D10220F6E7012084F845
:103C20003C0000BF2068006800F0010028B920684F
:103C3000006840F00100216808602068006820F4F6
:103C4000006021680860212084F83D00402084F84D
:103C50003E0000202064C4F824A0A4F82AB0608D9F
:103C600020854348E0622B464A4641462046CDE93E
:103C7000007603F063FA08B10120C6E731E032466E
:103C80003946204603F0DDFB50B1206C042805D1F5
:103C90002068006840F40070216808600120B4E7E3
:103CA000606A007821680861606A401C6062208D4B
:103CB000401E2085608D401E608520684069C0F3ED
:103CC000800070B1208D60B1606A00782168086161
:103CD000606A401C6062208D401E2085608D401E01
:103CE0006085208D0028CAD132463946204603F02F
:103CF00095FA00E01CE050B1206C042805D1206842
:103D0000006840F400702168086001207DE72068A9
:103D1000006840F4007021680860202084F83D00AD
:103D2000002084F83E0000BF84F83C0000BF6CE730
:103D300002206AE72E2E5C447269766572735C53CA
:103D4000544D3332463478785F48414C5F44726951
:103D50007665725C5372635C73746D33326634786B
:103D6000785F68616C5F6932632E63000200100047
:103D70000000FFFF10B586B00446142101A8FCF72F
:103D8000CBFA2A49206888424DD100BF002000901C
:103D90002748006840F0040025490860084600688C
:103DA00000F00400009000BF00BF00BF00200090A2
:103DB0000846006840F0010008600846006800F00E
:103DC0000100009000BF00BF481501901220029032
:103DD00001200390032004900420059001A91548B8
:103DE000FFF776F94FF480700190122002900120C5
:103DF0000390032004900420059001A90E48FFF7CA
:103E000067F900BF0020009009481030006840F4B6
:103E100000000749103108600846006800F40000FF
:103E2000009000BF00BF06B010BD0000005C004065
:103E30003038024000080240000002400348006899
:103E40000349097808440149086070475800002078
:103E50006000002010B50D48006840F400700B4968
:103E600008600846006840F4806008600846006802
:103E700040F480700860032000F018F9002000F082
:103E800007F800F049F8002010BD0000003C024097
:103E900070B588B0044600250026002221461C206B
:103EA00000F09AF81C2000F061F800BF002001909B
:103EB0001648006840F00100144908600846006890
:103EC00000F00100019000BF00BF02A903A800F0AC
:103ED00091FA00F0B7FA45000D48B5FBF0F0461E28
:103EE0004FF080400B49086040F2E7310948C1605B
:103EF000466000210161816001F0CAFA20B90548DD
:103F000001F042FC08B070BD0120FBE740380240E0
:103F100040420F00C80B002008B500BF00200090F1
:103F20001148006840F480400F4908600846006866
:103F300000F48040009000BF00BF00BF0020009050
:103F4000081F006840F08050091F0860084600689C
:103F500000F08050009000BF00BF00220F21901E93
:103F600000F03AF808BD00004438024010B504469D
:103F7000002C00DB03E0BE2108A009F07FFC2046F6
:103F8000002809DB00F01F02012191404209920044
:103F900002F1E022C2F8001100BF10BD2E2E2F4406
:103FA0007269766572732F53544D33324634787884
:103FB0005F48414C5F4472697665722F5372632F7C
:103FC00073746D3332663478785F68616C5F636FE9
:103FD000727465782E6300002DE9F05F80460C4610
:103FE00015460027102D00D203E0AA2120A009F0D9
:103FF00045FC102C00D203E0AB211DA009F03EFCD3
:1040000008F050FD0746394622462B4601F00700CE
:10401000C0F1070ABAF1040F02D94FF0040A01E017
:10402000C0F1070AD14600F1040ABAF1070F02D223
:104030004FF0000A01E0A0F1030AD4464FF0010A54
:104040000AFA09FAAAF1010A0AEA020A0AFA0CFAB9
:104050004FF0010B0BFA0CFBABF1010B0BEA030B5E
:104060004AEA0B063146404608F024FDBDE8F09FC1
:104070002E2E2F447269766572732F53544D33324E
:10408000463478785F48414C5F4472697665722F98
:104090005372632F73746D3332663478785F68615E
:1040A0006C5F636F727465782E63000010B5044610
:1040B000072C07D0062C05D0052C03D0042C01D0EA
:1040C000032C00D103E0922109A009F0D7FB00BF27
:1040D00004F00701154A10684FF6FF021040144A19
:1040E000024342EA0120114A106000BF10BD0000E7
:1040F0002E2E2F447269766572732F53544D3332CE
:10410000463478785F48414C5F4472697665722F17
:104110005372632F73746D3332663478785F6861DD
:104120006C5F636F727465782E6300000CED00E0C5
:104130000000FA0570B504460D460CB9012070BDAB
:104140002068012803D320680F2800D804E040F23B
:10415000512195A009F092FB6DB1012D0BD0022DDC
:1041600009D0032D07D0042D05D0052D03D0062D31
:1041700001D0072D00D104E040F252218AA009F0BD
:104180007DFB9748006800F00F00A84209D29449CF
:104190000D700846006800F00F00A84201D0012011
:1041A000CDE7207800F0020002283DD1207800F011
:1041B0000400042805D18B48006840F4E050894988
:1041C0000860207800F00800082805D185480068BC
:1041D00040F4604083490860A068B8B1A0688028B6
:1041E00014D0A068902811D0A068A0280ED0A06894
:1041F000B0280BD0A068C02808D0A068D02805D06F
:10420000A068E02802D0A068F02800D104E040F2C5
:10421000752165A009F032FB7248006820F0F000BB
:10422000A16808436F490860207800F00100002869
:104230004ED0606840B16068012805D060680228EF
:1042400002D06068032800D104E04FF41F7156A02B
:1042500009F014FB6068012807D16248083800683B
:10426000C0F34040B8B9012069E76068022802D075
:104270006068032807D15B4808380068C0F34060D5
:1042800048B901205BE7574808380068C0F3400090
:1042900008B9012053E75348006820F00300616823
:1042A000084350490860FFF76FF9064608E0FFF73A
:1042B0006BF9801B41F28831884201D903203EE727
:1042C0004848006800F00C006168B0EB810FEED147
:1042D0004348006800F00F00A84209D940490D701A
:1042E0000846006800F00F00A84201D0012026E730
:1042F000207800F0040004281FD1E06878B1E0685D
:10430000B0F5805F0BD0E068B0F5A05F07D0E06843
:10431000B0F5C05F03D0E068B0F5E05F00D104E025
:1043200040F2BA2120A009F0A9FA2E48006820F432
:10433000E050E16808432B490860207800F008004D
:10434000082820D1206978B12069B0F5805F0BD0B2
:104350002069B0F5A05F07D02069B0F5C05F03D039
:104360002069B0F5E05F00D104E040F2C1210EA069
:1043700009F084FA1B48006820F46040216940EA93
:10438000C1001849086000F07DF816490968C1F3BA
:104390000311154A515CC84014490860144800686C
:1043A000FFF776FD0020CAE62E2E2F44726976654F
:1043B00072732F53544D3332463478785F48414CF2
:1043C0005F4472697665722F5372632F73746D3315
:1043D00032663478785F68616C5F7263632E630065
:1043E000003C024008380240B03301086800002059
:1043F0005C0000200F2202600D4A126802F00302E6
:1044000042600B4A126802F0F0028260084A1268A9
:1044100002F4E052C260064A126802F46042D20816
:104420000261044A126802F00F020A60704700003D
:1044300008380240003C0240014800687047000014
:104440006800002000B5FFF7F7FF04490968C1F3D1
:104450008221034A515CC84000BD00000838024078
:10446000C033010800B5FFF7E7FF04490968C1F34D
:104470004231034A515CC84000BD00000838024088
:10448000C03301082DE9F047002400250026A1468D
:104490002548006800F00C0020B1042805D0082849
:1044A0003AD105E0DFF8849039E0DFF8849036E017
:1044B0001D48001F006800F03F041B48001F0068F3
:1044C00000F4800078B11A481749091F0968C1F340
:1044D0008811A0FB01700146224600233846FBF7F5
:1044E000D1FE05460EE011480F49091F0968C1F3C6
:1044F0008811A0FB01700146224600233846FBF7D5
:10450000C1FE05460848001F0068C0F30140401C7A
:104510004600B5FBF6F902E0DFF8109000BF00BFDF
:104520004846BDE8F0870000083802400024F40047
:10453000001BB700F8B504460CB90120F8BD20688F
:104540000F2800D803E0E821FBA009F097F92078B4
:1045500000F00100002870D0606838B16068B0F5E4
:10456000803F03D06068B0F5A02F00D103E0ED21BB
:10457000F1A009F083F9FE48006800F00C0004285F
:104580000DD0FB48006800F00C00082813D1F84853
:10459000001F006800F48000B0F5800F0BD1F448D4
:1045A00008380068C0F34040002859D060680028EF
:1045B00056D10120C2E700BF6068B0F5803F08D146
:1045C000EB480838006840F48030E9490839086051
:1045D0001EE06068B0F5A02F0DD1E54808380068EE
:1045E00040F48020E249083908600846006840F439
:1045F000803008600CE0DE480838006820F4803025
:10460000DB49083908600846006820F4802008600B
:1046100000BF606890B1FEF7B7FF054606E0FEF701
:10462000B3FF401B642801D9032087E7D04808382E
:104630000068C0F340400028F1D011E0FEF7A4FF6D
:10464000054606E0FEF7A0FF401B642801D90320C1
:1046500074E7C74808380068C0F340400028F1D12B
:10466000207800F00200022873D1E06810B1E06801
:10467000012800D104E040F21F11AFA009F0FEF8BC
:1046800020691F2800D804E04FF49071AAA009F017
:10469000F5F8B748006800F00C0058B1B44800685D
:1046A00000F00C0008281CD1B148001F006800F47D
:1046B0008000B0B9AE4808380068C0F3400020B1AF
:1046C000E068012801D0012038E7A94808380068CF
:1046D00020F0F800216940EAC100A54908390860C6
:1046E00037E0E06800B30120A2490860FEF74CFF04
:1046F000054606E0FEF748FF401B022801D90320CB
:104700001CE79B4808380068C0F340000028F1D03F
:1047100097480838006820F0F800216940EAC10095
:1047200093490839086014E0002092490860FEF7B8
:104730002BFF054606E0FEF727FF401B022801D9A4
:104740000320FBE68A4808380068C0F340000028D0
:10475000F1D1207800F00800082837D1606910B145
:104760006069012800D104E04FF4B07172A009F033
:1047700085F86069A8B101207F490860FEF704FF51
:10478000054606E0FEF700FF401B022801D9032082
:10479000D4E677486C300068C0F340000028F1D0C0
:1047A00014E0002074490860FEF7EEFE054606E0BE
:1047B000FEF7EAFE401B022801D90320BEE66C4842
:1047C0006C300068C0F340000028F1D1207800F080
:1047D0000400042875D10027A06828B1A06801282A
:1047E00002D0A068052800D104E04FF4C67152A0A1
:1047F00009F044F85E483830006800F0805090B905
:1048000000BF002000905A483830006840F08050C7
:104810005749383108600846006800F08050009021
:1048200000BF00BF01275548006800F48070B0B990
:104830005248006840F4807050490860FEF7A4FEBA
:10484000054606E0FEF7A0FE401B022801D9032022
:1048500074E64A48006800F480700028F2D000BF77
:10486000A068012808D142486830006840F0010083
:104870003F49683108601DE0A06805280DD13C481B
:104880006830006840F00400394968310860084623
:10489000006840F0010008600CE0354868300068AE
:1048A00020F001003249683108600846006820F0B5
:1048B0000400086000BFA068A8B1FEF765FE0546C9
:1048C00009E02FE0FEF760FE401B41F2883188428C
:1048D00001D9032032E6264868300068C0F3400062
:1048E0000028EFD013E0FEF74FFE054608E0FEF784
:1048F0004BFE401B41F28831884201D903201DE65E
:104900001B4868300068C0F340000028EFD1012F39
:1049100007D117483830006820F0805014493831EA
:10492000086000BFA06928B1A069012802D0A06971
:10493000022825D12AE000002E2E2F4472697665C8
:1049400072732F53544D3332463478785F48414C5C
:104950005F4472697665722F5372632F73746D337F
:1049600032663478785F68616C5F7263632E6300CF
:104970000838024000004742800E47420070004065
:1049800040F2CF11AFF2500008F078FFA069002884
:104990007CD06548006800F00C00082877D0A0693A
:1049A000022875D1E06918B1E069B0F5800F00D137
:1049B00005E04FF4EC71AFF2800008F05FFF206A71
:1049C0003F2800D805E040F2D911AFF2940008F07A
:1049D00055FF606A322804D3606AB0F5D87F00D8EA
:1049E00005E04FF4ED71AFF2B00008F047FFA06AA8
:1049F000022808D0A06A042805D0A06A062802D0A0
:104A0000A06A082800D105E040F2DB11AFF2D8001F
:104A100008F034FFE06A022803D3E06A0F2800D8C8
:104A200005E04FF4EE71AFF2F00008F027FF002030
:104A30003E490866FEF7A8FD054606E0FEF7A4FD20
:104A4000401B022801D9032078E537480838006860
:104A5000C0F340600028F1D1D4E907010843616A3E
:104A600040EA81110122A06AC2EB500041EA0041F4
:104A70002C20005D41EA00602B49091F08600120DD
:104A80002A490866FEF780FD054609E049E025E071
:104A90000EE0FEF779FD401B022801D903204DE509
:104AA000214808380068C0F340600028F1D038E0A1
:104AB00000201E490866FEF767FD054606E0FEF782
:104AC00063FD401B022801D9032037E5164808384A
:104AD0000068C0F340600028F1D122E0A0690128FD
:104AE00000D12BE51048001F066806F48001E0693C
:104AF000814214D106F03F01206A81420FD147F66E
:104B0000C0703040616A884209D106F44031A06A21
:104B1000814204D106F07061E06A814201D0012037
:104B20000CE500200AE5000008380240000047427A
:104B300010B504460CB9012010BD694920688842AF
:104B400007D068492068884203D0674920688842B6
:104B500000D104E04FF4A17164A008F08FFE6068FA
:104B600018B16068B0F5827F00D104E040F24311D3
:104B70005EA008F083FEA06838B1A068B0F5806F31
:104B800003D0A068B0F5004F00D104E04FF4A2714B
:104B900056A008F073FEE068B0F5006F01D0E06841
:104BA00000B904E040F2451150A008F067FEA0698A
:104BB000B0F5007F05D0A06918B1A069B0F5802FCD
:104BC00000D104E04FF4A37148A008F057FEE0695B
:104BD000A0B1E069082811D0E06910280ED0E06982
:104BE00018280BD0E069202808D0E069282805D0D3
:104BF000E069302802D0E069382800D104E040F2B2
:104C000047113AA008F03AFE206A10B1206A8028C5
:104C100000D104E04FF4A47134A008F02FFE606AC4
:104C200010B1606A102800D104E040F249112FA0B1
:104C300008F024FE606AA8B9206910B12069022832
:104C400000D104E04FF4A67128A008F017FE6069B7
:104C500010B16069012800D104E040F24D1123A099
:104C600008F00CFE0021A16294F8510028B9002040
:104C700084F85000204600F055F8022084F85100D6
:104C80002068006820F0400021680860D4E9010134
:104C90000843E16808432169084361690843218B9F
:104CA00001F400710843E1690843216A0843A16ADD
:104CB0000843216808600421A06901EA1040616A84
:104CC0000843216848602068C06920F400602168BA
:104CD000C86100206065012084F8510000202BE7A6
:104CE0000030014000380040003C00402E2E2F4490
:104CF0007269766572732F53544D33324634787827
:104D00005F48414C5F4472697665722F5372632F1E
:104D100073746D3332663478785F68616C5F73707A
:104D2000692E630010B586B00446142101A8FBF774
:104D3000F3FA4B49206888427ED100BF00200090E2
:104D40004848006840F480504649086008460068BA
:104D500000F48050009000BF00BF00BF0020009012
:104D600040481438006840F002003E491439086099
:104D70000846006800F00200009000BF00BF00BFBE
:104D8000002000900846006840F0010008600846D6
:104D9000006800F00100009000BF00BF18200190E3
:104DA000022002900120039003200490052005902A
:104DB00001A92D48FEF78CF9802001900220029075
:104DC00001200390032004900520059001A92748A5
:104DD000FEF77EF92648274908604FF0C06048601A
:104DE000002124488160C1604FF48061016100218D
:104DF00041618161C1614FF4403101620021416232
:104E0000FDF7E6FE08B1FCF709FE00BF1948E064B3
:104E1000846300BF16481830174908604FF0C0601F
:104E200048604021144881600021C1604FF48061D6
:104E300001610021416100E010E08161C1614FF436
:104E40000031016200214162FDF7C2FE08B1FCF7AA
:104E5000E5FD00BF0848A064846300BF06B010BD34
:104E6000003001404438024000040240000002408B
:104E700040640240EC0500204C0600202DE9FF5F55
:104E80000446884691461D460E9E01200290002051
:104E90000190A06800B904E040F25A4186A008F0F1
:104EA000EDFC00BF94F85000012803D1022004B0AB
:104EB000BDE8F09F012084F8500000BFFEF764FBBE
:104EC000074694F851B060680390AA46BBF1010F01
:104ED0000BD00398B0F5827F04D1A06810B9BBF164
:104EE000040F02D002200190DBE0B8F1000F03D0E4
:104EF000B9F1000F00D015B901200190D1E094F86C
:104F00005100042802D0052084F85100002060657B
:104F1000C4F83890E587A587C4F83080E586A58673
:104F2000206460642068006800F04000402805D0DC
:104F30002068006840F0400021680860E068B0F533
:104F4000006F4AD1606810B1BAF1010F09D1206B2E
:104F500000882168C860206B801C2063E08E401EA2
:104F6000E08633E02068806800F00200022810D15B
:104F7000E08E70B1029801280BD1206B0088216867
:104F8000C860206B801C2063E08E401EE0860020FD
:104F900002902068806800F0010068B1E08F58B18D
:104FA0002068C068A16B0880A06B801CA063E08FA4
:104FB000401EE08701200290FEF7E6FAC01BB042D7
:104FC00004D3701C10B1032001906AE0E08E002829
:104FD000C8D1E08F0028C5D14AE0606810B1BAF1AD
:104FE000010F09D1206B007821680873206B401CE9
:104FF0002063E08E401EE08634E02068806800F088
:105000000200022810D1E08E70B1029801280BD165
:10501000206B007821680873206B401C2063E08EB1
:10502000401EE086002002902068806800F00100A9
:1050300068B1E08F58B12068C068A16B0870A06BA0
:10504000401CA063E08F401EE08701200290FEF725
:105050009BFAC01BB04201D3701C00B916B90320E3
:1050600001901EE0E08E0028C7D1E08F0028C4D157
:105070003A463146204606F0A9FB20B101200190B6
:10508000202060650DE0A06850B900BF00200090AE
:105090002068C068009020688068009000BF00BF52
:1050A00000BF012084F8510000BF002084F85000A8
:1050B00000BF0198FBE600002E2E2F447269766532
:1050C00072732F53544D3332463478785F48414CD5
:1050D0005F4472697665722F5372632F73746D33F8
:1050E00032663478785F68616C5F7370692E630034
:1050F00010B50446042C00D004B904E040F2C911F4
:105100000BA008F0BBFB042C08D14FF0E020006995
:1051100040F004004FF0E021086107E04FF0E0208C
:10512000006920F004004FF0E021086110BD00008C
:105130002E2E2F447269766572732F53544D33327D
:10514000463478785F48414C5F4472697665722FC7
:105150005372632F73746D3332663478785F68618D
:105160006C5F636F727465782E63000070477047E0
:1051700070B506460C4600254E493068884203D07B
:105180004D493068884200D104E040F2A1614BA053
:1051900008F074FB2068B0F5006F01D0206800B9FA
:1051A00004E040F2A26145A008F068FB6068B0F539
:1051B000806F01D0606800B904E040F2A3613FA0B5
:1051C00008F05CFBA06858B1A068B0F5807F07D0FC
:1051D000A068B0F5007F03D0A068B0F5407F00D193
:1051E00004E040F2A46135A008F048FBE068FF2825
:1051F00000D804E040F2A56130A008F03FFB206930
:10520000B0F5805F01D0206900B904E040F2A661EA
:105210002AA008F033FB606918B16069B0F5005F3F
:1052200000D104E040F2A76124A008F027FBE06968
:10523000B0F5804F01D0E06900B904E04FF4D561CA
:105240001EA008F01BFB00BF96F83C00012801D10E
:10525000022070BD012086F83C0000BF25F0FF0051
:10526000E16840EA010525F44070A16840EA0105C3
:1052700025F48060616840EA010525F4006021683A
:1052800040EA010525F48050216940EA010525F432
:105290000050616940EA010525F48040E16940EA77
:1052A00001053068456400BF002086F83C0000BF5F
:1052B00000BFCEE700000140000401402E2E2F4425
:1052C0007269766572732F53544D33324634787851
:1052D0005F48414C5F4472697665722F5372632F49
:1052E00073746D3332663478785F68616C5F7469AB
:1052F0006D5F65782E6300002DE9F04104460D4690
:105300004B49206888421BD02068B0F1804F17D0ED
:1053100048492068884213D04749206888420FD006
:105320004649206888420BD045492068884207D00A
:1053300044492068884203D043492068884200D10C
:1053400004E040F2646141A008F098FA2868A0B136
:105350002868102811D0286820280ED02868302806
:105360000BD02868402808D02868502805D0286825
:10537000602802D02868702800D104E040F26561FE
:1053800032A008F07BFA6868802801D0686800B90C
:1053900004E040F266612DA008F070FA00BF94F8B6
:1053A0003C00012802D10220BDE8F081012084F8F0
:1053B0003C0000BF022084F83D0020684768206858
:1053C000866827F0700728680743206847601849F7
:1053D000206888421BD02068B0F1804F17D0154953
:1053E0002068884213D01449206888420FD013499E
:1053F000206888420BD014492068884207D022498F
:105400002068884203D021492068884205D126F0CF
:1054100080066868064320688660012084F83D00A5
:1054200000BF002084F83C0000BF00BFBCE70000C4
:10543000000001400004004000080040000C004053
:105440000010004000140040000401402E2E2F44A4
:105450007269766572732F53544D333246347878BF
:105460005F48414C5F4472697665722F5372632FB7
:1054700073746D3332663478785F68616C5F746919
:105480006D5F65782E630000004001400018004009
:1054900010B504460CB9012010BD4149206888426E
:1054A00033D02068B0F1804F2FD03E492068884229
:1054B0002BD03D492068884227D03C49206888424B
:1054C00023D03B49206888421FD03A49206888424F
:1054D0001BD039492068884217D038492068884253
:1054E00013D03749206888420FD036492068884257
:1054F0000BD035492068884207D03449206888425B
:1055000003D033492068884200D104E04FF4897108
:1055100030A008F0B3F9A06858B1A068102808D0EE
:10552000A068202805D0A068402802D0A068602884
:1055300000D104E040F2131126A008F09FF9206981
:1055400038B12069B0F5807F03D02069B0F5007FC5
:1055500000D104E04FF48A711EA008F08FF9A06911
:1055600010B1A069802800D104E040F2151119A003
:1055700008F084F994F83D0028B9002084F83C0034
:10558000204600F043F8022084F83D00211D2068E9
:1055900006F0D8FA012084F83D0000207CE70000E6
:1055A000000001400004004000080040000C0040E2
:1055B0000010004000140040000401400040014081
:1055C000004401400048014000180040001C004019
:1055D000002000402E2E2F447269766572732F537F
:1055E000544D3332463478785F48414C5F44726999
:1055F0007665722F5372632F73746D33326634780D
:10560000785F68616C5F74696D2E630038B504461D
:1056100056492068884218D100BF002000905448A5
:10562000006840F00100524908600846006800F038
:105630000100009000BF00BF002205211920FEF7E5
:10564000CBFC1920FEF792FC8EE04A492068884284
:105650001AD100BF002000904548001F006840F0AC
:1056600002004349091F08600846006800F0020074
:10567000009000BF00BF002205211D20FEF7ACFCFA
:105680001D20FEF773FC6FE03B492068884211D172
:1056900000BF002000903648001F006840F0040062
:1056A0003349091F08600846006800F004000090B4
:1056B00000BF59E03149206888421AD100BF00205C
:1056C00000902B48001F006840F010002849091F77
:1056D00008600846006800F01000009000BF00BF9E
:1056E000002205213620FEF777FC3620FEF73EFC2F
:1056F0003AE02349206888421AD100BF0020009078
:105700001B48001F006840F020001949091F08606D
:105710000846006800F02000009000BF00BF002293
:1057200005213720FEF758FC3720FEF71FFC1BE051
:1057300014492068884217D100BF002000900C480F
:10574000006840F400300A4908600846006800F428
:105750000030009000BF00BF002205211920FEF795
:105760003BFC1920FEF702FC38BD000000000140A0
:10577000443802400004004000080040001000408F
:10578000001400400044014070B5044628492068D8
:10579000884233D02068B0F1804F2FD0254920684F
:1057A00088422BD024492068884227D0234920688A
:1057B000884223D02249206888421FD0214920688E
:1057C00088421BD020492068884217D01F49206892
:1057D000884213D01E49206888420FD01D49206896
:1057E00088420BD01C492068884207D01B4920689A
:1057F000884203D01A492068884200D104E040F270
:10580000B91118A008F03AF82068C06840F001000B
:105810002168C8602068806800F00705062D05D063
:105820002068006840F0010021680860002070BD19
:10583000000001400004004000080040000C00404F
:1058400000100040001400400004014000400140EE
:10585000004401400048014000180040001C004086
:10586000002000402E2E2F447269766572732F53EC
:10587000544D3332463478785F48414C5F44726906
:105880007665722F5372632F73746D33326634787A
:10589000785F68616C5F74696D2E63002DE9F0417B
:1058A00004460D4600BF94F83C00012802D10220B6
:1058B000BDE8F081012084F83C0000BF022084F89C
:1058C0003D002868B0F5805F1AD02868B0F5005F09
:1058D00016D02868A0B12868102811D02868202880
:1058E0000ED0286830280BD02868402808D02868B7
:1058F000502805D02868602802D02868702800D178
:1059000004E041F28B11FDA007F0B8FF2068866823
:1059100026F0770626F47F4620688660286850289F
:1059200078D00CDC202876D004DC002874D0102835
:1059300073D134E2302871D04028F9D1A9E1602830
:105940006DD0702845D0B0F5805F03D0B0F5005F12
:10595000EED1A8E0F7492068884233D02068B0F142
:10596000804F2FD0F449206888422BD0F34920681B
:10597000884227D0F2492068884223D0F149206824
:1059800088421FD0F049206888421BD0EF49206828
:10599000884217D0EE492068884213D0ED4920682C
:1059A00088420FD0EC49206888420BD0EB49206830
:1059B000884207D0EA492068884203D0E949206834
:1059C000884200D104E041F29711CCA007F056FFC5
:1059D00014E2D849206888421BD02068B0F1804F7B
:1059E00017D0D5492068884213D0D449206888420E
:1059F0000FD0D349206888420BD0D4492068884210
:105A000007D0D3492068884203D0D449206888420F
:105A100006D10AE0A3E0C3E1C0E1EEE1C1E1EBE0C1
:105A200041F29E11B5A007F029FFA86858B1A868F7
:105A3000B0F5805F07D0A868B0F5005F03D0A86814
:105A4000B0F5405F00D104E041F2A111ABA007F036
:105A500015FF6868B0F5004F09D0686838B168680C
:105A600028B16868022802D068680A2800D104E0DA
:105A700041F2A211A1A007F001FFE8680F2800D8A9
:105A800004E041F2A3119DA007F0F8FED5E902134E
:105A90006A68206806F044F92068866846F0770650
:105AA00020688660AAE1A3492068884213D0206854
:105AB000B0F1804F0FD0A049206888420BD09F4999
:105AC0002068884207D09E492068884203D09F49B9
:105AD0002068884200D104E041F2B61187A007F0A7
